:020000040800F2
:1000000000000520D12F0008B12D0008BF2D0008E9
:10001000C52D0008CB2D0008D12D000800000000E0
:10002000000000000000000000000000D72D0008C4
:10003000E52D000800000000F32D0008012E000847
:10004000213000082130000821300008213000084C
:10005000213000082130000821300008213000083C
:10006000213000082130000821300008213000082C
:10007000213000082130000821300008213000081C
:10008000213000082130000821300008213000080C
:1000900021300008213000082130000821300008FC
:1000A00021300008213000082130000821300008EC
:1000B00021300008213000082130000821300008DC
:1000C00021300008213000082130000821300008CC
:1000D00021300008213000082130000821300008BC
:1000E00021300008213000082130000821300008AC
:1000F000213000082130000821300008213000089C
:10010000213000082130000821300008213000088B
:1001100021300008112E000821300008213000088D
:10012000213000082130000821300008213000086B
:10013000213000082130000821300008213000085B
:10014000213000082130000821300008213000084B
:10015000213000082130000821300008213000083B
:10016000213000082130000821300008213000082B
:100170002130000821300008213000080000000074
:10018000213000082130000821300008213000080B
:1001900021300008213000082130000821300008FB
:1001A00021300008213000082130000821300008EB
:1001B00021300008213000082130000821300008DB
:0801C000213000082130000885
:1001C80010B5054C237833B9044B13B10448AFF389
:1001D80000800123237010BD0C00002000000000E7
:1001E8006C30000808B5034B1BB103490348AFF353
:1001F800008008BD00000000100000206C300008DE
:1002080053B94AB9002908BF00281CBF4FF0FF3175
:100218004FF0FF3000F07AB9ADF1080C6DE904CE6B
:1002280000F006F8DDF804E0DDE9022304B07047C9
:100238002DE9F0478C460D460446089E002B51D107
:100248008A4217466DD9B2FA82FEBEF1000F0BD072
:10025800CEF1200C01FA0EF520FA0CFC02FA0EF78A
:100268004CEA050C00FA0EF44FEA174A250CBCFBC1
:10027800FAF81FFA87F90AFB18CC45EA0C4508FB7F
:1002880009F3AB420AD9ED1908F1FF3280F0238156
:10029800AB4240F22081A8F102083D44ED1AA4B215
:1002A800B5FBFAF00AFB105544EA054400FB09F9CE
:1002B800A14509D9E41900F1FF3380F00A81A1456D
:1002C80040F2078102383C44A4EB090440EA0840A4
:1002D8000021002E61D024FA0EF4002334607360EC
:1002E800BDE8F0878B4207D9002E54D0002186E85C
:1002F80021000846BDE8F087B3FA83F1002940F0F1
:100308008E80AB4202D3824200F2FA80841A65EBF7
:1003180003050120AC46002E3FD086E81010BDE84A
:10032800F08712B90127B7FBF2F7B7FA87FEBEF1DB
:10033800000F34D1EB1B3A0C1FFA87FC0121B3FBE9
:10034800F2F8250C02FB183345EA03450CFB08F3C9
:10035800AB4207D9ED1908F1FF3002D2AB4200F2E7
:10036800D1808046ED1AA3B2B5FBF2F002FB10551E
:1003780043EA05440CFB00FCA44507D9E41900F145
:10038800FF3302D2A44500F2B8801846A4EB0C044F
:1003980040EA08409DE731463046BDE8F087CEF197
:1003A800200405FA0EF307FA0EF720FA04F83A0CBF
:1003B80025FA04F448EA0308B4FBF2F14FEA1845B9
:1003C80002FB11441FFA87FC45EA044501FB0CF3C4
:1003D800AB4200FA0EF409D9ED1901F1FF3080F0B3
:1003E8008A80AB4240F2878002393D44EB1A1FFAFB
:1003F80088F5B3FBF2F002FB103345EA034500FB36
:100408000CF3AB4207D9ED1900F1FF386FD2AB42BC
:100418006DD902383D44EB1A40EA01418FE7C1F13A
:10042800200722FA07F88B4005FA01F448EA03038B
:1004380020FA07FE4FEA134CFD404EEA040EB5FBC6
:10044800FCF94FEA1E440CFB19551FFA83F844EADD
:10045800054509FB08F4AC4202FA01F200FA01FA78
:1004680008D9ED1809F1FF3043D2AC4241D9A9F1BE
:1004780002091D442D1B1FFA8EFEB5FBFCF00CFB78
:1004880010554EEA054400FB08F8A04507D9E418C2
:1004980000F1FF3529D2A04527D902381C4440EA8B
:1004A8000940A4EB0804A0FB02894C45C6464D460A
:1004B80015D312D056B1BAEB0E0364EB050404FA57
:1004C80007F7CB401F43CC40376074600021BDE87C
:1004D800F0871846F8E69046E0E6C245EAD2B8EB5F
:1004E800020E69EB03050138E4E72846D7E74046E2
:1004F80091E78146BEE7014678E702383C4445E784
:10050800084608E7A8F102083D442BE7704700BFFA
:1005180080B500AF032000F023F9002000F006F8B2
:1005280002F0F4FB0023184680BD000080B582B0BD
:1005380000AF7860124B1A68124B1B7819464FF4BB
:100548007A73B3FBF1F3B2FBF3F3184600F03DF90D
:100558000346002B01D001230EE07B680F2B0AD83D
:10056800002279684FF0FF3000F005F9064A7B68F1
:100578001360002300E0012318460837BD4680BDFC
:1005880008000020040000200000002080B400AF14
:10059800064B1B781A46064B1B681344044A136023
:1005A80000BFBD465DF8047B704700BF0400002013
:1005B8002800002080B400AF034B1B681846BD46D6
:1005C8005DF8047B704700BF2800002080B485B028
:1005D80000AF78607B6803F00703FB600B4BDB68B8
:1005E800BB60BA684FF6FF031340BB60FB681A0292
:1005F800BB681A43064B1343BB60044ABB68D3600D
:1006080000BF1437BD465DF8047B704700ED00E07D
:100618000000FA0580B400AF044BDB681B0A03F046
:1006280007031846BD465DF8047B704700ED00E0FF
:1006380080B483B000AF0346FB71094997F90730CE
:100648005B09FA7902F01F02012000FA02F241F870
:10065800232000BF0C37BD465DF8047B704700BF00
:1006680000E100E080B483B000AF03463960FB715D
:1006780097F90730002B0BDA0D49FB7903F00F03CC
:10068800043B3A68D2B21201D2B20B441A7609E09E
:10069800084997F907303A68D2B21201D2B20B442E
:1006A80083F8002300BF0C37BD465DF8047B704714
:1006B80000ED00E000E100E080B489B000AFF86030
:1006C800B9607A60FB6803F00703FB61FB69C3F15B
:1006D8000703042B28BF0423BB61FB690433062BE3
:1006E80002D9FB69033B00E000237B610122BB695F
:1006F80002FA03F35A1EBB681A407B699A4001212B
:100708007B6901FA03F3591E7B680B4013431846B3
:100718002437BD465DF8047B7047000080B582B081
:1007280000AF78607B68013BB3F1807F01D3012380
:100738000FE00A4A7B68013B53600F214FF0FF30FE
:10074800FFF790FF054B00229A60044B07221A60BE
:10075800002318460837BD4680BD00BF10E000E002
:1007680080B582B000AF78607868FFF72FFF00BFD0
:100778000837BD4680BD80B586B000AF0346B96076
:100788007A60FB7300237B61FFF744FF78617A6826
:10079800B9687869FFF790FF024697F90F3011465C
:1007A8001846FFF75FFF00BF1837BD4680BD80B50C
:1007B80082B000AF0346FB7197F907301846FFF780
:1007C80037FF00BF0837BD4680BD80B582B000AF97
:1007D80078607868FFF7A2FF034618460837BD46D9
:1007E80080BD000080B483B000AF78607B68042BC4
:1007F80006D1094A084B1B6843F00403136005E05F
:10080800054A054B1B6823F00403136000BF0C372F
:10081800BD465DF8047B704710E000E080B500AF8E
:1008280000F002F800BF80BD80B400AF00BFBD4635
:100838005DF8047B704780B483B000AF78607B6854
:1008480093F83530DBB2022B04D07B6880225A65DE
:1008580001230CE07B68052283F835207B681B6840
:100868007A681268126822F001021A60002318469A
:100878000C37BD465DF8047B7047000080B489B032
:1008880000AF786039600023FB6100237B6100239F
:100898003B610023BB610023FB6175E10122FB6919
:1008A80002FA03F37B613B681A687B6913403B617A
:1008B8003A697B699A4240F064813B685B68022B25
:1008C80003D03B685B68122B23D1FB69DA087B688D
:1008D800083253F82230BB61FB6903F007039B0021
:1008E8000F2202FA03F3DB43BA691340BB613B688A
:1008F8001A69FB6903F007039B0002FA03F3BA695C
:100908001343BB61FB69DA087B680832B96943F8AD
:1009180022107B681B68BB61FB695B00032202FA3B
:1009280003F3DB43BA691340BB613B685B6803F0C0
:100938000302FB695B0002FA03F3BA691343BB6164
:100948007B68BA691A603B685B68012B0BD03B680F
:100958005B68022B07D03B685B68112B03D03B68B0
:100968005B68122B30D17B689B68BB61FB695B00BD
:10097800032202FA03F3DB43BA691340BB613B6805
:10098800DA68FB695B0002FA03F3BA691343BB61D7
:100998007B68BA699A607B685B68BB610122FB6906
:1009A80002FA03F3DB43BA691340BB613B685B6837
:1009B8001B0903F00102FB6902FA03F3BA69134346
:1009C800BB617B68BA695A607B68DB68BB61FB699D
:1009D8005B00032202FA03F3DB43BA691340BB61ED
:1009E8003B689A68FB695B0002FA03F3BA69134330
:1009F800BB617B68BA69DA603B685B6803F0805367
:100A0800002B00F0BE80654A644B5B6C43F4804366
:100A18005364624B5B6C03F48043FB60FB68604A81
:100A2800FB699B08023352F82330BB61FB6903F072
:100A380003039B000F2202FA03F3DB43BA69134056
:100A4800BB617B68574A934237D07B68564A9342CA
:100A580031D07B68554A93422BD07B68544A9342E5
:100A680025D07B68534A93421FD07B68524A9342F1
:100A780019D07B68514A934213D07B68504A9342FD
:100A88000DD07B684F4A934207D07B684E4A934209
:100A980001D1092312E00A2310E008230EE00723FE
:100AA8000CE006230AE0052308E0042306E00323FC
:100AB80004E0022302E0012300E00023FA6902F0C7
:100AC800030292009340BA691343BB613449FB693E
:100AD8009B080233BA6941F823203C4B1B68BB6171
:100AE8003B69DB43BA691340BB613B685B6803F44D
:100AF8008033002B03D0BA693B691343BB61334A87
:100B0800BB691360314B5B68BB613B69DB43BA6906
:100B18001340BB613B685B6803F40033002B03D0D0
:100B2800BA693B691343BB61284ABB695360274BC9
:100B38009B68BB613B69DB43BA691340BB613B6897
:100B48005B6803F48013002B03D0BA693B69134335
:100B5800BB611E4ABB6993601C4BDB68BB613B6988
:100B6800DB43BA691340BB613B685B6803F400135D
:100B7800002B03D0BA693B691343BB61134ABB69B5
:100B8800D360FB690133FB61FB690F2B7FF686AEEF
:100B980000BF2437BD465DF8047B7047003802402B
:100BA80000380140000002400004024000080240F2
:100BB800000C0240001002400014024000180240DD
:100BC800001C02400020024000240240003C01407A
:100BD80080B586B000AF78600023FB757B68002B7A
:100BE80001D101235CE27B681B6803F00103002B41
:100BF80000F08780964B9B6803F00C03042B0CD005
:100C0800934B9B6803F00C03082B12D1904B5B6845
:100C180003F48003B3F5800F0BD18D4B1B6803F4ED
:100C28000033002B6CD07B685B68002B68D10123F4
:100C380036E27B685B68B3F5803F06D1844A844B13
:100C48001B6843F4803313602EE07B685B68002BDD
:100C58000CD17F4A7E4B1B6823F4803313607C4A97
:100C68007B4B1B6823F4802313601DE07B685B6863
:100C7800B3F5A02F0CD1764A754B1B6843F480233B
:100C88001360734A724B1B6843F4803313600BE0A4
:100C98006F4A6F4B1B6823F4803313606C4A6C4BAC
:100CA8001B6823F4802313607B685B68002B13D0D8
:100CB800FFF780FC386108E0FFF77CFC02463B69DF
:100CC800D31A642B01D90323EAE1614B1B6803F4AF
:100CD8000033002BF0D014E0FFF76CFC386108E01B
:100CE800FFF768FC02463B69D31A642B01D903233A
:100CF800D6E1574B1B6803F40033002BF0D100E01A
:100D080000BF7B681B6803F00203002B69D0504BBF
:100D18009B6803F00C03002B0BD04D4B9B6803F032
:100D28000C03082B1CD14A4B5B6803F48003002B8F
:100D380016D1474B1B6803F00203002B05D07B68D4
:100D4800DB68012B01D00123AAE14149404B1B6814
:100D580023F0F8027B681B69DB0013430B6040E05B
:100D68007B68DB68002B23D0394A394B1B6843F07A
:100D780001031360FFF71EFC386108E0FFF71AFC57
:100D880002463B69D31A022B01D9032388E1304B71
:100D98001B6803F00203002BF0D02D492C4B1B6875
:100DA80023F0F8027B681B69DB0013430B6018E033
:100DB800274A274B1B6823F001031360FFF7FAFB50
:100DC800386108E0FFF7F6FB02463B69D31A022BAD
:100DD80001D9032364E11E4B1B6803F00203002BB7
:100DE800F0D17B681B6803F00803002B38D07B68C0
:100DF8005B69002B19D0164A154B5B6F43F0010352
:100E08005367FFF7D7FB386108E0FFF7D3FB0246CB
:100E18003B69D31A022B01D9032341E10C4B5B6FC9
:100E280003F00203002BF0D01AE0094A084B5B6F6D
:100E380023F001035367FFF7BDFB38610AE0FFF7B2
:100E4800B9FB02463B69D31A022B03D9032327E1D6
:100E580000380240944B5B6F03F00203002BEED185
:100E68007B681B6803F00403002B00F0A4808E4B02
:100E78001B6C03F08053002B0DD18B4A8A4B1B6CE3
:100E880043F080531364884B1B6C03F08053FB6062
:100E9800FB680123FB75854B1B6803F48073002BEB
:100EA80018D1824A814B1B6843F480731360FFF7A3
:100EB80081FB386108E0FFF77DFB02463B69D31AE6
:100EC800642B01D90323EBE0784B1B6803F4807390
:100ED800002BF0D07B689B68012B06D1724A724BBD
:100EE8001B6F43F0010313672DE07B689B68002BA1
:100EF8000CD16D4A6C4B1B6F23F0010313676A4AD0
:100F0800694B1B6F23F0040313671CE07B689B6825
:100F1800052B0CD1644A644B1B6F43F00403136721
:100F2800614A614B1B6F43F0010313670BE05E4A94
:100F38005D4B1B6F23F0010313675B4A5A4B1B6F12
:100F480023F0040313677B689B68002B15D0FFF719
:100F580031FB38610AE0FFF72DFB02463B69D31AE3
:100F680041F28832934201D9032399E04E4B1B6F1B
:100F780003F00203002BEED014E0FFF71BFB3861EF
:100F88000AE0FFF717FB02463B69D31A41F28832A1
:100F9800934201D9032383E0434B1B6F03F0020301
:100FA800002BEED1FB7D012B05D13F4A3E4B1B6C3C
:100FB80023F0805313647B689B69002B6FD03A4BF6
:100FC8009B6803F00C03082B67D07B689B69022B96
:100FD80049D1354A344B1B6823F080731360FFF7FF
:100FE800E9FA386108E0FFF7E5FA02463B69D31AE7
:100FF800022B01D9032353E02B4B1B6803F000732A
:10100800002BF0D128497B68DA697B681B6A1A4390
:101018007B685B6A9B011A437B689B6A5B08013BA0
:101028001B041A437B68DB6A1B06134343F0005317
:101038004B601D4A1C4B1B6843F080731360FFF71D
:10104800B9FA386108E0FFF7B5FA02463B69D31AE6
:10105800022B01D9032323E0134B1B6803F0007311
:10106800002BF0D01BE0104A0F4B1B6823F0807355
:101078001360FFF79FFA386108E0FFF79BFA024612
:101088003B69D31A022B01D9032309E0064B1B68DD
:1010980003F00073002BF0D101E0012300E00023EE
:1010A80018461837BD4680BD003802400070004021
:1010B80080B584B000AF786039600023FB607B683E
:1010C800002B01D10123CEE0694B1B6803F00F020E
:1010D8003B689A4210D26649654B1B6823F00F02A1
:1010E8003B6813430B60624B1B6803F00F023B68BD
:1010F8009A4201D00123B6E07B681B6803F0020323
:10110800002B20D07B681B6803F00403002B05D05C
:10111800584A584B9B6843F4E05393607B681B68BC
:1011280003F00803002B05D0524A524B9B6843F446
:10113800604393604F494F4B9B6823F0F0027B68F4
:101148009B6813438B607B681B6803F00103002BCB
:1011580040D07B685B68012B07D1464B1B6803F4C2
:101168000033002B15D101237DE07B685B68022BDF
:1011780007D1404B1B6803F00073002B09D10123F2
:1011880071E03C4B1B6803F00203002B01D10123E3
:1011980069E03849374B9B6823F003027B685B683A
:1011A80013438B60FFF706FAF8600AE0FFF702FACC
:1011B8000246FB68D31A41F28832934201D90323CD
:1011C80051E02C4B9B6803F00C027B685B689B002A
:1011D8009A42EBD1264B1B6803F00F023B689A42F8
:1011E80010D92349224B1B6823F00F023B68134395
:1011F8000B601F4B1B6803F00F023B689A4201D03B
:10120800012330E07B681B6803F00403002B08D03F
:101218001849184B9B6823F4E0527B68DB6813433A
:101228008B607B681B6803F00803002B09D0114909
:10123800104B9B6823F460427B681B69DB001343F7
:101248008B6000F01DF801460A4B9B681B0903F0F0
:101258000F03094AD35C21FA03F3084A13600020FC
:10126800FFF764F9002318461037BD4680BD00BF5C
:10127800003C024000380240BC3000080800002052
:101288002DE9F04F8FB000AF0023FB6200237B6392
:101298000023BB6200233B63624B9B6803F00C0393
:1012A800042B07D0082B08D0002B40F0B2805E4BEF
:1012B8003B63B1E05D4B3B63AEE05A4B5B6803F0C8
:1012C8003F03FB62574B5B6803F48003002B4ED04F
:1012D800544B5B689B094FF0000440F2FF114FF03C
:1012E800000201EA030102EA04020B461446600107
:1012F8007862786A40EAD36078625B013B62D7E93A
:1013080008345B1A64EB02044FEA841949EA9369CA
:101318004FEA8318B8EB030869EB04094FEAC903DD
:10132800FB61FB6943EA5873FB614FEAC803BB6181
:10133800D7E9068918EB010849EB02094FEA492366
:101348007B617B6943EAD8537B614FEA48233B6161
:10135800D7E9048940464946FB6A4FF000041A461B
:101368002346FEF74DFF03460C467B6343E02D4BB7
:101378005B689B094FF0000440F2FF114FF0000238
:1013880001EA030102EA04020B4614466001F86010
:10139800F86840EAD360F8605B01BB60D7E90234C3
:1013A8005B1A64EB0204A60146EA93669D01ED1AF6
:1013B80066EB0406F3007B607B6843EA55737B6049
:1013C800EB003B6097E860006D1846EB02064FEAB9
:1013D800862B4BEA955B4FEA852A55465E4628469A
:1013E8003146FB6A4FF000041A462346FEF708FF11
:1013F80003460C467B630B4B5B681B0C03F0030333
:1014080001335B00BB627A6BBB6AB2FBF3F33B63ED
:1014180002E0054B3B6300BF3B6B18463C37BD46BB
:10142800BDE8F08F003802400024F40000127A0072
:1014380080B400AF034B1B681846BD465DF8047BBB
:10144800704700BF0800002080B500AFFFF7F0FF2D
:101458000146054B9B689B0A03F00703034AD35CCC
:1014680021FA03F3184680BD00380240CC3000084A
:1014780080B500AFFFF7DCFF0146054B9B685B0BAF
:1014880003F00703034AD35C21FA03F3184680BD2F
:1014980000380240CC30000880B588B000AF7860D2
:1014A80000237B6100233B610023FB600023FB6179
:1014B8000023BB617B681B6803F00103002B12D07B
:1014C800694A694B9B6823F4000393606649664B3D
:1014D8009A687B685B6B13438B607B685B6B002B44
:1014E80001D10123FB617B681B6803F40023002BF7
:1014F80017D05D495C4BD3F88C3023F440127B68DD
:10150800DB6B1343C1F88C307B68DB6BB3F5801F52
:1015180001D10123FB617B68DB6B002B01D1012327
:10152800BB617B681B6803F48013002B17D04E49FE
:101538004D4BD3F88C3023F440027B681B6C13436B
:10154800C1F88C307B681B6CB3F5800F01D1012387
:10155800FB617B681B6C002B01D10123BB617B689D
:101568001B6803F08073002B01D00123FB617B68AB
:101578001B6803F02003002B00F08B803A4A3A4B9B
:101588001B6C43F080531364374B1B6C03F0805380
:10159800BB60BB68354A354B1B6843F480731360E6
:1015A800FFF708F8786108E0FFF704F802467B695E
:1015B800D31A642B01D9032355E32C4B1B6803F47E
:1015C8008073002BF0D0284B1B6F03F440733B61F2
:1015D8003B69002B35D07B681B6B03F440723B6979
:1015E8009A422ED0204B1B6F23F440733B611E4A56
:1015F8001D4B1B6F43F4803313671B4A1A4B1B6F39
:1016080023F480331367184A3B691367164B1B6F23
:1016180003F00103002B14D0FEF7CCFF78610AE039
:10162800FEF7C8FF02467B69D31A41F2883293421B
:1016380001D9032317E30C4B1B6F03F00203002BA4
:10164800EED07B681B6B03F44073B3F5407F11D178
:101658000548054B9B6823F4F8127B68196B044B0B
:101668000B40134383600BE00038024000700040D9
:10167800FFFCFF0FB04AB04B9B6823F4F81393604C
:10168800AD49AD4B1A6F7B681B6BC3F30B03134358
:101698000B677B681B6803F01003002B10D0A64A69
:1016A800A54BD3F88C3023F08073C2F88C30A24954
:1016B800A14BD3F88C207B689B6B1343C1F88C300B
:1016C8007B681B6803F48043002B0AD09A499A4B25
:1016D800D3F8903023F440327B685B6E1343C1F833
:1016E80090307B681B6803F40043002B0AD09249B2
:1016F800914BD3F8903023F440227B689B6E1343C0
:10170800C1F890307B681B6803F48033002B0AD043
:101718008949894BD3F8903023F440127B68DB6EFB
:101728001343C1F890307B681B6803F40033002B27
:101738000AD08149804BD3F8903023F440027B686B
:101748001B6F1343C1F890307B681B6803F040039C
:10175800002B0AD07849784BD3F8903023F0030255
:101768007B685B6C1343C1F890307B681B6803F09F
:101778008003002B0AD070496F4BD3F8903023F0C8
:101788000C027B689B6C1343C1F890307B681B6824
:1017980003F48073002B0AD06749674BD3F8903065
:1017A80023F030027B68DB6C1343C1F890307B6810
:1017B8001B6803F40073002B0AD05F495E4BD3F813
:1017C800903023F0C0027B681B6D1343C1F8903042
:1017D8007B681B6803F48063002B0AD05649564B7C
:1017E800D3F8903023F440727B685B6D1343C1F8E3
:1017F80090307B681B6803F40063002B0AD04E49C5
:101808004D4BD3F8903023F440627B689B6D1343B3
:10181800C1F890307B681B6803F48053002B0AD012
:101828004549454BD3F8903023F440527B68DB6D33
:101838001343C1F890307B681B6803F40053002BF6
:101848000AD03D493C4BD3F8903023F440427B68A2
:101858001B6E1343C1F890307B681B6803F4800348
:10186800002B0AD03449344BD3F8903023F08062EF
:101878007B689B6F1343C1F890307B681B6803F447
:101888000013002B11D02C492B4BD3F8903023F0A8
:1018980000627B68DB6F1343C1F890307B68DB6FB5
:1018A800B3F1006F01D10123BB617B681B6803F0B2
:1018B8000803002B01D00123BB617B681B6803F47C
:1018C8008023002B0AD01C491B4BD3F8903023F0FF
:1018D80040727B685B6F1343C1F890307B681B686C
:1018E80003F40003002B0BD01349134BD3F89030AB
:1018F80023F080527B68D3F880301343C1F89030CE
:10190800FB69012B05D07B681B68B3F1007F40F0B1
:10191800D880094A084B1B6823F080631360FEF7E0
:1019280049FE78610AE0FEF745FE02467B69D31A54
:10193800642B03D9032396E1003802406C4B1B68E3
:1019480003F00063002BEED17B681B6803F00103F2
:10195800002B21D07B685B6B002B1DD1644BD3F827
:1019680084301B0C03F003033B61614BD3F88430D4
:101978001B0E03F00F03FB605D497B685B689A01EF
:101988003B691B041A43FB681B061A437B689B6868
:101998001B071343C1F884307B681B6803F40023DA
:1019A800002B04D07B68DB6BB3F5801F0AD07B6803
:1019B8001B6803F48013002B2ED07B681B6CB3F5D7
:1019C800800F29D14A4BD3F884301B0C03F0030352
:1019D8003B61474BD3F884301B0F03F00703FB60D0
:1019E80043497B685B689A013B691B041A437B681F
:1019F800DB681B061A43FB681B071343C1F88430D6
:101A08003B493B4BD3F88C3023F01F027B685B6A61
:101A1800013B1343C1F88C307B681B6803F080736B
:101A2800002B1DD0324BD3F884301B0E03F00F036C
:101A38003B612F4BD3F884301B0F03F00703FB6087
:101A48002B497B685B689A017B681B691B041A43F6
:101A58003B691B061A43FB681B071343C1F8843014
:101A68007B681B6803F00073002B11D020497B684A
:101A78005B689A017B681B691B041A437B68DB68F7
:101A88001B061A437B689B681B071343C1F8843005
:101A9800174A174B1B6843F080631360FEF78AFDF3
:101AA800786108E0FEF786FD02467B69D31A642B4D
:101AB80001D90323D7E00E4B1B6803F00063002B0A
:101AC800F0D0BB69012B40F0CD80094A084B1B6858
:101AD80023F080531360FEF76DFD78610AE0FEF78E
:101AE80069FD02467B69D31A642B03D90323BAE044
:101AF800003802405E4B1B6803F00053B3F1005FEF
:101B0800EDD07B681B6803F40023002B03D07B68AF
:101B1800DB6B002B09D07B681B6803F48013002B58
:101B28002ED07B681B6C002B2AD1514BD3F8883000
:101B38001B0C03F003033B614D4BD3F888301B0F9C
:101B480003F00703FB604A497B685B699A013B69BC
:101B58001B041A437B689B691B061A43FB681B0717
:101B68001343C1F888304249414BD3F88C3023F4F1
:101B7800F8527B689B6A013B1B021343C1F88C3007
:101B88007B681B6803F40013002B22D07B68DB6F93
:101B9800B3F1006F1DD1364BD3F888301B0E03F01C
:101BA8000F033B61324BD3F888301B0F03F0070358
:101BB800FB602F497B685B699A017B681B6A1B0481
:101BC8001A433B691B061A43FB681B071343C1F8FA
:101BD80088307B681B6803F00803002B28D0244B4F
:101BE800D3F888301B0E03F00F033B61204BD3F86A
:101BF80088301B0C03F00303FB601D497B685B699D
:101C08009A01FB681B041A433B691B061A437B684D
:101C1800DB691B071343C1F888301549144BD3F807
:101C28008C3023F440327B68DB6A1343C1F88C3074
:101C38000F4A0F4B1B6843F080531360FEF7BAFC42
:101C4800786108E0FEF7B6FC02467B69D31A642B7C
:101C580001D9032307E0064B1B6803F00053B3F1D7
:101C6800005FEFD1002318462037BD4680BD00BF76
:101C78000038024080B582B000AF78607B68002BE6
:101C880001D1012343E07B6893F86930DBB2002B74
:101C980006D17B68002283F86820786801F04AF949
:101CA8007B68242283F869207B681B687A6812683D
:101CB800126822F001021A60786800F0F5FB03460A
:101CC800012B01D1012322E07B685B6A002B02D043
:101CD800786800F057FE7B681B687A68126852685B
:101CE80022F490425A607B681B687A68126892688E
:101CF80022F02A029A607B681B687A681268126868
:101D080042F001021A60786800F0DEFE03461846C9
:101D18000837BD4680BD80B588B002AFF860B960AD
:101D28003B601346FB8000237B61FB6893F86930B6
:101D3800DBB2202B75D1BB68002B02D0FB88002BAF
:101D480001D101236EE0FB6893F86830012B01D1C3
:101D5800022367E0FB68012283F86820FB68002201
:101D6800DA66FB68212283F86920FEF723FC786194
:101D7800FB68FA88A3F85020FB68FA88A3F8522079
:101D880032E0FB68B3F852309BB2013B9AB2FB6871
:101D9800A3F852203B6800937B6900228021F868F1
:101DA80000F00CFA0346002B01D003233AE0FB684D
:101DB8009B68B3F5805F10D1FB681B69002B0CD1C1
:101DC800BB683B61FB681B683A691288C2F308026A
:101DD8009A62BB680233BB6006E0FB681A68BB689E
:101DE800591CB9601B789362FB68B3F852309BB2F8
:101DF800002BC6D13B6800937B6900224021F8681C
:101E080000F0DCF90346002B01D003230AE0FB684D
:101E1800202283F86920FB68002283F868200023C9
:101E280000E0022318461837BD4680BD80B58AB049
:101E380002AFF860B9603B601346FB800023FB618A
:101E4800FB6893F86A30DBB2202B40F0AC80BB68AB
:101E5800002B02D0FB88002B01D10123A4E0FB68F2
:101E680093F86830012B01D102239DE0FB68012221
:101E780083F86820FB680022DA66FB68222283F870
:101E88006A20FEF797FBF861FB68FA88A3F85820E8
:101E9800FB68FA88A3F85A20FB689B68B3F5805F53
:101EA8000ED1FB681B69002B05D1FB6840F2FF12BD
:101EB800A3F85C2028E0FB68FF22A3F85C2023E05D
:101EC800FB689B68002B0DD1FB681B69002B04D1B4
:101ED800FB68FF22A3F85C2016E0FB687F22A3F8CA
:101EE8005C2011E0FB689B68B3F1805F0CD1FB6854
:101EF8001B69002B04D1FB687F22A3F85C2003E058
:101F0800FB683F22A3F85C20FB68B3F85C307B8356
:101F180039E0FB68B3F85A309BB2013B9AB2FB68D0
:101F2800A3F85A203B680093FB6900222021F86837
:101F380000F044F90346002B01D0032334E0FB688A
:101F48009B68B3F5805F12D1FB681B69002B0ED12B
:101F5800BB687B61FB681B685B6A9AB27B8B13402A
:101F68009AB27B691A80BB680233BB600BE0BB681E
:101F78005A1CBA60FA681268526AD1B27A8BD2B225
:101F88000A40D2B21A70FB68B3F85A309BB2002BE1
:101F9800BFD1FB68202283F86A20FB68002283F8FF
:101FA8006820002300E0022318462037BD4680BD84
:101FB80080B586B000AF78607B681B68DB697B61A1
:101FC8007B681B681B683B617B681B689B68FB60C0
:101FD8007B6903F00F03BB60BB68002B0DD17B69E5
:101FE80003F02003002B08D03B6903F02003002BEB
:101FF80003D0786800F0CEF9DAE0BB68002B00F077
:10200800B980FB6803F00103002B05D13B6903F499
:102018009073002B00F0AE807B6903F00103002B66
:102028000ED03B6903F48073002B09D07B681B68D2
:1020380001221A627B68DB6E43F001027B68DA6674
:102048007B6903F00203002B0ED0FB6803F0010349
:10205800002B09D07B681B6802221A627B68DB6E42
:1020680043F004027B68DA667B6903F00403002B03
:102078000ED0FB6803F00103002B09D07B681B68B6
:1020880004221A627B68DB6E43F002027B68DA6620
:102098007B6903F00803002B13D03B6903F020038E
:1020A800002B04D1FB6803F00103002B09D07B68E7
:1020B8001B6808221A627B68DB6E43F008027B68A3
:1020C800DA667B68DB6E002B71D07B6903F0200336
:1020D800002B07D03B6903F02003002B02D078685F
:1020E80000F058F97B68DB6E03F00803002B06D17B
:1020F8007B681B689B6803F04003002B31D078682D
:1021080000F0B3F97B681B689B6803F04003002B61
:1021180023D07B681B687A681268926822F04002B4
:102128009A607B685B6E002B13D07B685B6E224ADB
:102138001A657B685B6E1846FEF77DFB0346002B2D
:1021480016D07B685B6E1B6D7A68526E1046984796
:102158000EE0786800F0A6F80AE0786800F0A2F8C7
:1021680006E0786800F09EF87B680022DA661EE0D8
:1021780000BF1CE07B6903F08003002B08D03B699B
:1021880003F08003002B03D0786800F095F80FE087
:102198007B6903F04003002B0AD03B6903F040033E
:1021A800002B05D0786800F0DDF800BF00E000BF24
:1021B8001837BD4680BD00BF5922000880B584B0DD
:1021C80000AFF860B9603B601346FB712CE0BB6957
:1021D800B3F1FF3F28D0BB69002B07D0FEF7EAF91F
:1021E80002463B68D21ABB699A421DD3FB681B683A
:1021F800FA681268126822F4D0721A60FB681B68C9
:10220800FA681268926822F001029A60FB6820223C
:1022180083F86920FB68202283F86A20FB68002283
:1022280083F8682003230FE0FB681B68DA69BB6842
:102238001A40BB689A420CBF01230023DBB21A463E
:10224800FB799A42C3D0002318461037BD4680BD9B
:1022580080B584B000AF78607B689B6BFB60FB68DF
:102268000022A3F85A20FB680022A3F85220F8683D
:1022780000F018F800BF1037BD4680BD80B483B0A9
:1022880000AF786000BF0C37BD465DF8047B70472F
:1022980080B483B000AF786000BF0C37BD465DF8EE
:1022A800047B704780B483B000AF786000BF0C3700
:1022B800BD465DF8047B704780B485B000AF786098
:1022C8007B6893F86930DBB2212B44D17B68B3F883
:1022D80052309BB2002B11D17B681B687A68126858
:1022E800126822F080021A607B681B687A6812689C
:1022F800126842F040021A6000232DE07B689B6858
:10230800B3F5805F13D17B681B69002B0FD17B6805
:10231800DB6CFB607B681B68FA681288C2F30802F2
:102328009A627B68DB6C9A1C7B68DA6408E07B68DD
:102338001A687B68DB6C581C7968C8641B789362E0
:102348007B68B3F852309BB2013B9AB27B68A3F822
:102358005220002300E0022318461437BD465DF8DA
:10236800047B704780B582B000AF78607B681B68DB
:102378007A681268126822F040021A607B6820228C
:1023880083F869207868FFF779FF00231846083733
:10239800BD4680BD80B584B000AF78607B68B3F877
:1023A8005C30FB817B6893F86A30DBB2222B4FD11B
:1023B8007B689B68B3F5805F15D17B681B69002B30
:1023C80011D17B685B6DBB607B681B685B6A9AB2E6
:1023D800FB8913409AB2BB681A807B685B6D9A1CB4
:1023E8007B685A650DE07B685B6D591C7A6851659E
:1023F8007A681268526AD1B2FA89D2B20A40D2B265
:102408001A707B68B3F85A309BB2013B9BB27A686A
:102418001946A2F85A10002B18D17B681B687A68F5
:102428001268126822F490721A607B681B687A68D6
:102438001268926822F001029A607B68202283F871
:102448006A207868FFF724FF00230AE0002308E0E9
:102458007B681B687A681268926942F008029A6180
:10246800022318461037BD4680BD80B483B000AF44
:1024780078607B681B687A681268126822F4907228
:102488001A607B681B687A681268926822F00102F9
:102498009A607B68202283F86A2000BF0C37BD460B
:1024A8005DF8047B7047000090B587B000AF786096
:1024B8000023FB601023FB7500237B810023BB8274
:1024C8000023FB747B689A687B681B691A437B68E6
:1024D8005B691A437B68DB691343FB607B681A6896
:1024E8007B681B681968AA4B0B40F9680B4313609B
:1024F8007B681B687A681268526822F440517A68CF
:10250800D2680A435A607B689A697B681B6A1343DE
:10251800FB607B681B687A681268926822F43061F5
:10252800FA680A439A607B681B689A4A93421FD1EB
:10253800994BD3F8903003F00303032B00F23E814C
:1025480001A252F823F000BF612500086D2500089C
:1025580067250008732500080123FB752EE1022377
:10256800FB752BE10423FB7528E10823FB7525E1A6
:102578007B681B68894A934230D1874BD3F89030E7
:1025880003F00C030C2B00F2198101A252F823F07E
:10259800CD250008C5270008C5270008C52700085D
:1025A800D9250008C5270008C5270008C527000841
:1025B800D3250008C5270008C5270008C527000837
:1025C800DF2500080023FB75F8E00223FB75F5E022
:1025D8000423FB75F2E00823FB75EFE07B681B68BA
:1025E8006F4A93421CD16C4BD3F8903003F0300300
:1025F800102B0FD0102B02D8002B05D0DEE0202B9B
:1026080005D0302B09D0D9E00023FB75D6E0022392
:10261800FB75D3E00423FB75D0E00823FB75CDE000
:102628007B681B685F4A93421CD15B4BD3F89030A0
:1026380003F0C003402B0FD0402B02D8002B05D04D
:10264800BCE0802B05D0C02B09D0B7E00023FB7578
:10265800B4E00223FB75B1E00423FB75AEE0082368
:10266800FB75ABE07B681B684F4A934220D14A4B0D
:10267800D3F8903003F44073B3F5807F12D0B3F5EC
:10268800807F02D8002B07D098E0B3F5007F06D0F2
:10269800B3F5407F09D091E00023FB758EE002235B
:1026A800FB758BE00423FB7588E00823FB7585E048
:1026B8007B681B683D4A934220D1374BD3F8903052
:1026C80003F44063B3F5806F12D0B3F5806F02D87E
:1026D800002B07D072E0B3F5006F06D0B3F5406F5A
:1026E80009D06BE00123FB7568E00223FB7565E008
:1026F8000423FB7562E00823FB755FE07B681B68B9
:102708002B4A934220D1244BD3F8903003F4405302
:10271800B3F5805F12D0B3F5805F02D8002B07D0E5
:102728004CE0B3F5005F06D0B3F5405F09D045E053
:102738000023FB7542E00223FB753FE00423FB7591
:102748003CE00823FB7539E07B681B68194A934213
:1027580035D1114BD3F8903003F44043B3F5804F93
:1027680012D0B3F5804F02D8002B07D026E0B3F57E
:10277800004F06D0B3F5404F1ED01FE00023FB7575
:102788001CE00223FB7519E00423FB7516E000BF6B
:10279800F369FFEF00100140003802400044004098
:1027A80000480040004C0040005000400014014028
:1027B80000780040007C00400823FB7500BF7B6860
:1027C800DB69B3F5004F6CD1FB7D082B54D801A20F
:1027D80052F823F0012800081D28000839280008AD
:1027E800812800084F28000881280008812800084F
:1027F800812800086B280008FEF726FE03465A00C9
:102808007B685B685B081A447B685B68B2FBF3F320
:10281800BB8234E0FEF72CFE03465A007B685B68F7
:102828005B081A447B685B68B2FBF3F3BB8226E063
:102838007B685B685A08514B13447A685268B3FB4B
:10284800F2F3BB821BE0FEF71BFD03465A007B68D0
:102858005B685B081A447B685B68B2FBF3F3BB8276
:102868000DE07B685B685B0803F580327B685B681A
:10287800B2FBF3F3BB8202E00123FB7400BFBB8A07
:1028880023F00F037B81BB8A5B109BB203F0070325
:102898009AB27B8913437B817B681B687A89DA60EB
:1028A80067E0FB7D082B61D801A252F823F000BF36
:1028B800DD280008FD2800081D29000875290008E2
:1028C80039290008752900087529000875290008A4
:1028D800592900087B681C68FEF7B6FD02467B682C
:1028E8005B685B081A447B685B68B2FBF3F39BB2D6
:1028F800E3603EE07B681C68FEF7BAFD02467B6831
:102908005B685B081A447B685B68B2FBF3F39BB2B5
:10291800E3602EE07B681A687B685B685908184B8F
:102928000B4479684968B3FBF1F39BB2D36020E0AC
:102938007B681C68FEF7A4FC02467B685B685B0842
:102948001A447B685B68B2FBF3F39BB2E36010E068
:102958007B681B687A685268520802F500417A68F9
:102968005268B1FBF2F292B2DA6002E00123FB7422
:1029780000BFFB7C18461C37BD4690BD0048E801E7
:102988000024F40080B483B000AF78607B685B6A91
:1029980003F00103002B0AD07B681B687A68126871
:1029A800526822F400317A68926A0A435A607B6856
:1029B8005B6A03F00203002B0AD07B681B687A6805
:1029C8001268526822F480317A68D26A0A435A60DF
:1029D8007B685B6A03F00403002B0AD07B681B68E2
:1029E8007A681268526822F480217A68126B0A4366
:1029F8005A607B685B6A03F00803002B0AD07B6887
:102A08001B687A681268526822F400417A68526B2F
:102A18000A435A607B685B6A03F01003002B0AD0F4
:102A28007B681B687A681268926822F480517A6819
:102A3800926B0A439A607B685B6A03F02003002B61
:102A48000AD07B681B687A681268926822F4005181
:102A58007A68D26B0A439A607B685B6A03F040032A
:102A6800002B1AD07B681B687A681268526822F4B7
:102A780080117A68126C0A435A607B681B6CB3F544
:102A8800801F0AD17B681B687A681268526822F432
:102A9800C0017A68526C0A435A607B685B6A03F02B
:102AA8008003002B0AD07B681B687A68126852681A
:102AB80022F400217A68926C0A435A6000BF0C37EE
:102AC800BD465DF8047B704780B586B002AF78607C
:102AD8000023FB607B680022DA66FDF76BFDF86077
:102AE8007B681B681B6803F00803082B0ED16FF086
:102AF8007E430093FB6800224FF400117868FFF7CB
:102B08005DFB0346002B01D003230CE07B682022E9
:102B180083F869207B68202283F86A207B6800227A
:102B280083F86820002318461037BD4680BD000092
:102B380080B485B000AF154A144B1B6B43F080037B
:102B48001363124B1B6B03F08003FB60FB680F4A97
:102B58000E4B1B6B43F0040313630C4B1B6B03F00E
:102B68000403BB60BB68094A084B1B6B43F00803AE
:102B78001363064B1B6B03F008037B607B6800BF85
:102B88001437BD465DF8047B704700BF003802402B
:102B980080B500AFFDF7BCFC00F020F8FFF7C8FFD8
:102BA80000F094F90A4B1B68094A1268126842F04F
:102BB80020021A60074B1B78012BFBD164231822D3
:102BC80005490348FFF7A7F8024B00221A70F1E7FE
:102BD800480000202C0000208430000880B5B4B0E4
:102BE80000AF434A424B1B6C43F080531364404B85
:102BF8001B6C03F080537B607B683E4A3D4B1B682F
:102C080023F4404343F4004313603A4B1B6803F436
:102C180040433B603B680123C7F8A0304FF4803342
:102C2800C7F8A4300223C7F8B8304FF48003C7F8B8
:102C3800BC300423C7F8C030A823C7F8C430022327
:102C4800C7F8C8300223C7F8CC3007F1A0031846EC
:102C5800FDF7BEFF0346002B03D09E21264800F057
:102C68004FF80F23C7F88C300223C7F890300023A1
:102C7800C7F894304FF4A053C7F898304FF48053F6
:102C8800C7F89C3007F18C0305211846FEF710FAA7
:102C98000346002B03D0AC21174800F031F84FF45D
:102CA8008063BB600023FB6507F108031846FEF745
:102CB800F3FB0346002B03D0B3210F4800F020F8A4
:102CC800FEF7B6FB02460D4BA3FB02239B091846F1
:102CD800FDF77BFD0420FDF785FD002200214FF064
:102CE800FF30FDF748FD00BFD037BD4680BD00BFAF
:102CF80000380240007000409C300008D34D62103C
:102D080080B483B000AF78603960FEE780B582B0E8
:102D180000AF244A234B1B6C43F080531364214BB0
:102D28001B6C03F080537B607B681E4A1D4B5B6CF9
:102D380043F4804353641B4B5B6C03F480433B6058
:102D48003B680320FDF70CFD002200216FF00B000B
:102D5800FDF711FD002200216FF00A00FDF70BFDC1
:102D6800002200216FF00900FDF705FD0022002177
:102D78006FF00400FDF7FFFC002200216FF0030054
:102D8800FDF7F9FC002200216FF00100FDF7F3FCCC
:102D9800002200214FF0FF30FDF7EDFC00BF08379F
:102DA800BD4680BD0038024080B400AF00BFBD46BC
:102DB8005DF8047B704780B400AFFEE780B400AFD5
:102DC800FEE780B400AFFEE780B400AFFEE780B452
:102DD80000AF00BFBD465DF8047B704780B400AF0C
:102DE80000BFBD465DF8047B704780B400AF00BFEC
:102DF800BD465DF8047B704780B500AFFDF7C6FBA4
:102E0800FDF70CFD00BF80BD80B500AF6423012233
:102E18000E490F48FFF70AF80D48FFF7C9F80D4BA0
:102E28001B785A1CD1B20B4A11701A46074B1978F5
:102E3800094B9954074B1B78092B05D9074B0122DD
:102E48001A70044B00221A7000BF80BD30000020A9
:102E5800480000202D000020340000202C00002015
:102E680080B400AF154A154BD3F8883043F470038B
:102E7800C2F88830124A124B1B6843F001031360F2
:102E88000F4B00229A600E490D4B1A680D4B1340E8
:102E98000B600B4B0C4A5A60094A094B1B6823F418
:102EA80080231360064B0022DA60044B4FF0006267
:102EB8009A6000BFBD465DF8047B704700ED00E0F6
:102EC80000380240FFFFF6FE1030002480B500AF46
:102ED800154B164A1A60144B4FF4E1325A60124BE4
:102EE80000229A60104B0022DA600F4B00221A6110
:102EF8000D4B0C225A610C4B00229A610A4B00229E
:102F0800DA61094B00221A62074B00225A6206480E
:102F1800FEF7B0FE0346002B03D043210448FFF719
:102F2800EFFE00BF80BD00BF4800002000500040F9
:102F3800AC30000880B588B000AF78607B681B684B
:102F48001D4A934234D11D4A1C4B1B6C43F4801319
:102F580013641A4B1B6C03F48013BB60BB684FF4FB
:102F68008053FB6002233B6100237B610323BB6129
:102F78000823FB6107F10C0319461148FDF77EFC95
:102F88000423FB6002233B6100237B610323BB61B5
:102F98000823FB6107F10C0319460A48FDF76EFC8C
:102FA800002200213520FDF7E6FB3520FDF7FFFB69
:102FB80000BF2037BD4680BD0050004000380240A9
:102FC80000080240000C0240DFF834D0002103E082
:102FD8000C4B5B58435004310B480C4B42189A4237
:102FE800F6D30B4A02E0002342F8043B094B9A420D
:102FF800F9D3FFF735FF00F011F8FFF7C9FD704767
:1030080000000520E4300008000000200C0000202B
:103018000C000020B8000020FEE7000070B50D4E3F
:103028000D4CA41BA4100025A54209D10B4E0C4C35
:1030380000F018F8A41BA4100025A54205D170BD06
:1030480056F8253098470135EEE756F82530984769
:103058000135F2E7DC300008DC300008DC3000081D
:10306800E0300008F8B500BFF8BC08BC9E467047C1
:0C307800F8B500BFF8BC08BC9E467047CD
:10308400544F4C47412069534B454E4445522052BE
:103094006579697A646972002E2E5C5372635C6D83
:1030A40061696E2E630000002E2E5C5372635C75A2
:1030B400736172742E6300000000000000000000C1
:1030C40001020304060708090000000001020304CA
:0830D40064D1FF7F0100000040
:0430DC00ED010008FA
:0430E000C90100081A
:0C30E40010000000010000000024F400B7
:0400000508002FD1EF
:00000001FF
